:020000040800F2
:1000000000800120910C0008EB020008F9020008B2
:10001000FF020008050300080B03000800000000B1
:1000200000000000000000000000000011030008B4
:100030001F030008000000002D0300083B03000818
:10004000D90C0008D90C0008D90C0008D90C0008FC
:10005000D90C0008D90C0008D90C0008D90C0008EC
:10006000D90C0008D90C0008D90C0008D90C0008DC
:10007000D90C0008D90C0008D90C0008D90C0008CC
:10008000D90C0008D90C0008D90C0008D90C0008BC
:10009000D90C0008D90C0008D90C0008D90C0008AC
:1000A000D90C0008D90C0008D90C0008D90C00089C
:1000B000D90C0008D90C0008D90C0008D90C00088C
:1000C000D90C0008D90C0008D90C0008D90C00087C
:1000D000D90C0008D90C0008D90C0008D90C00086C
:1000E000D90C0008D90C0008D90C0008D90C00085C
:1000F000D90C0008D90C0008D90C0008D90C00084C
:10010000D90C0008D90C0008D90C0008D90C00083B
:10011000D90C0008D90C0008D90C0008D90C00082B
:10012000D90C0008D90C0008D90C0008D90C00081B
:10013000D90C0008D90C0008D90C0008D90C00080B
:1001400000000000000000000000000000000000AF
:10015000D90C0008D90C0008D90C0008D90C0008EB
:10016000D90C0008D90C0008D90C0008D90C0008DB
:10017000D90C0008D90C0008D90C0008D90C0008CB
:04018000D90C00088E
:1001900010B5054C237833B9044B13B10448AFF3C1
:1001A00000800123237010BD8C000020000000009F
:1001B0004024000808B5034B1BB103490348AFF3C3
:1001C000008008BD000000009000002040240008CE
:1001D00001F0FF01102A2BDB10F0070F08D010F8F8
:1001E000013B013A8B422DD010F0070F42B3F6D1FC
:1001F000F0B441EA012141EA014122F007047FF015
:1002000000070023F0E80256083C85EA010586EA6B
:10021000010685FA47F5A3FA87F586FA47F6A5FAA7
:1002200087F68EB9EED1F0BC01F0FF0102F00702B3
:1002300032B110F8013B013A83EA010313B1F8D15E
:100240000020704701387047002D06BF354603383F
:10025000073815F0010F07D1013015F4807F02BF78
:10026000013015F4C03F0130F0BC0138704700BFC9
:1002700080B500AF00F092F80121012000F050F9A4
:1002800000BF00F0E9F80346002BFAD001223B2121
:10029000022000F0DBF9002000F050FB01210220D9
:1002A00000F03EF900BF192000F0AEF80346012B24
:1002B000F9D1002000F088F9042000F0B1F9042001
:1002C00000F098F9012000F01DFB022000F00CFA6C
:1002D00000BF00F01FFA0346022BFAD1002000F005
:1002E00011FB00F03FFD00BF80BD80B400AF00BF38
:1002F000BD465DF8047B704780B400AFFEE780B474
:1003000000AFFEE780B400AFFEE780B400AFFEE7C9
:1003100080B400AF00BFBD465DF8047B704780B479
:1003200000AF00BFBD465DF8047B704780B400AFEE
:1003300000BFBD465DF8047B704780B400AF00BFCE
:10034000BD465DF8047B704780B500AFFFF790FFB6
:1003500000F026FE4FF4E13000F0DCFD0A4800F02A
:10036000EDFF0A4800F0EAFF094800F0E7FF094BFB
:100370001B685A1C07490A601946074800F058FFD5
:10038000012000F00DFFF2E7582400086C2400085B
:1003900078240008A80000208424000880B400AF5E
:1003A000184A136843F00103136000BF154B1B6824
:1003B000C3F34003DBB2012BF8D1124A53686FF349
:1003C0000103536000BF0F4B5B68C3F38103DBB2D3
:1003D000002BF8D10B4B1B680A4A23F0867323F4D9
:1003E00080331360074B00225A60064B00221A63C9
:1003F000044B4FF41F029A6000BFBD465DF8047BBA
:10040000704700BF0010024080B485B000AF786034
:100410000023FB737B681B0C03F1804303F504335B
:100420001A687B6803F01F03012101FA03F31A40E5
:100430007B6803F01F03012101FA03F39A4202D003
:100440000023FB7301E00123FB73FB7B1846143789
:10045000BD465DF8047B704780B582B000AF0023D5
:100460007B600023FB7002E07B6801337B6011201E
:10047000FFF7CAFF0346012B03D07B68B3F5405F4B
:10048000F2D31120FFF7C0FF0346012B02D0002357
:10049000FB7001E00123FB70FB7818460837BD466E
:1004A00080BD80B483B000AF78600B46FB70FB78F2
:1004B000012B16D17B681B0C03F1804303F5043339
:1004C00019687B6803F01F0301229A407B681B0CAC
:1004D00003F1804303F50433184641EA0203036045
:1004E00017E07B681B0C03F1804303F504331968A4
:1004F0007B6803F01F03012202FA03F3DA437B68EF
:100500001B0C03F1804303F50433184601EA020390
:10051000036000BF0C37BD465DF8047B70470000E8
:1005200080B483B000AF03460A46FB711346BB712B
:10053000FB79042B3ED801A252F823F051050008A4
:1005400065050008790500088D050008A10500086B
:100550001C4ABB7903F00103D9B2136861F30003AD
:10056000136028E0174ABB7903F00103D9B213687E
:1005700061F3104313601EE0124ABB7903F00103DC
:10058000D9B2136861F31863136014E00D4ABB79A4
:1005900003F00103D9B2136A61F3000313620AE0A6
:1005A000084ABB7903F00103D9B2536A61F300032F
:1005B000536200E000BF00BF0C37BD465DF8047B0E
:1005C000704700BF0010024080B483B000AF034604
:1005D000FB71074AFB7903F00F03D9B2536861F34B
:1005E0000713536000BF0C37BD465DF8047B7047AE
:1005F0000010024080B483B000AF0346FB71074A8D
:10060000FB7903F00703D9B2536861F30A235360FF
:1006100000BF0C37BD465DF8047B704700100240F8
:1006200080B483B000AF0346FB71074AFB7903F047
:100630000703D9B2536861F3CD23536000BF0C3771
:10064000BD465DF8047B70470010024080B483B063
:1006500000AF0346FB710B46BB7113467B71FB7900
:10066000002B0AD11F4A53686FF3104353601D4A91
:10067000136B43F00073136312E01A4A536843F498
:1006800080335360FB79012B05D1164A53686FF311
:100690005143536004E0134A536843F400335360FA
:1006A000104ABB7903F00F03D9B2536861F3954345
:1006B0005360BB791B110B4A03F00303D9B2536893
:1006C00061F35E735360074A7B7903F00103D9B28B
:1006D000536861F3DF73536000BF0C37BD465DF8AC
:1006E000047B70470010024080B483B000AF034623
:1006F000FB71074AFB7903F00303D9B2536861F336
:100700000103536000BF0C37BD465DF8047B7047A2
:100710000010024080B400AF044B5B68C3F3810358
:10072000DBB21846BD465DF8047B704700100240FE
:1007300080B58AB000AF786000233B6200237B6203
:100740000023FB610023BB6100237B6100233B612D
:10075000FFF7E0FF0346FB73FB7B022B20D0022B4D
:1007600069DC002B02D0012B16D064E05D4B5B6D81
:10077000C3F34023DBB2002B0AD05A4B1B6BC3F3ED
:100780004063DBB2002B03D07B68574A1A6056E007
:100790007B68564A1A6052E07B68544A1A604EE001
:1007A000504B5B68C3F30043DBB2BB614D4B5B68EE
:1007B000C3F38343DBB27B624A4B5B68C3F3417391
:1007C000DBB2FB61FB69002B02D17B6A0F2B06D1E8
:1007D000FB691A017B6A134401337B6202E07B6A86
:1007E00002337B62BB69002B06D17B6A404A03FB64
:1007F00002F27B681A6022E03A4B5B68C3F3404325
:10080000DBB2002B10D0374B5B6DC3F30133DBB28F
:100810003B623B6A0233354AB2FBF3F37A6A03FB6D
:1008200002F27B681A600AE07B6A304A03FB02F23C
:100830007B681A6003E07B682C4A1A6000BF294B72
:100840005B68C3F30313DBB27B612A4A7B69134401
:100850001B783B617B681A683B69DA407B685A60A9
:10086000204B5B68C3F30223DBB27B61224A7B69C6
:1008700013441B783B617B685A683B69DA407B68AC
:10088000DA60184B5B68C3F3C223DBB27B611B4A9F
:100890007B6913441B783B617B685A683B69DA408B
:1008A0007B689A600F4B5B68C3F30073DBB27B61BC
:1008B0007B699B000B4A5268C2F38132D2B2134368
:1008C0007B610F4A7B6913441B783B617B689A68A4
:1008D0003B69B2FBF3F27B681A6100BF2837BD4663
:1008E00080BD00BF00100240006CDC0200127A00E4
:1008F00000093D0094240008A4240008AC2400084A
:10090000B424000880B483B000AF0346FB71FB79C8
:10091000012B05D1084A536D43F03003536504E0C1
:10092000054A536D6FF30513536500BF0C37BD4681
:100930005DF8047B704700BF0010024080B483B0B4
:1009400000AF0346FB71074AFB7903F00303D9B2FA
:10095000536D61F30D33536500BF0C37BD465DF831
:10096000047B70470010024080B485B000AF78600F
:1009700039603B681B683B813B689B79032B02D144
:1009800000237B8130E03B689B79002B15D13B68CD
:100990005B799BB203F00F037B813B685B79182B7B
:1009A00003D13A897B681A611EE03B685B79282B8A
:1009B0001AD13A897B685A6116E03B689B791BB271
:1009C00003F008031AB23B681B791BB203F004035F
:1009D0001BB213431AB23B68DB791BB203F003036B
:1009E0001BB213431BB27B813B89DBB2002B25D0AA
:1009F0000023FB601FE03A89FB6842FA03F303F02F
:100A00000103002B14D07B681B68FA6892000F2149
:100A100001FA02F2D2431A407B681A607B681B68B5
:100A20007989FA68920001FA02F21A437B681A6027
:100A3000FB680133FB60FB68072BDCD93B89FF2B8C
:100A400028D93B891B0A3B810023FB601FE03A89C0
:100A5000FB6842FA03F303F00103002B14D07B6818
:100A60005B68FA6892000F2101FA02F2D2431A4041
:100A70007B685A607B685B687989FA68920001FA42
:100A800002F21A437B685A60FB680133FB60FB6823
:100A9000072BDCD900BF1437BD465DF8047B7047D7
:100AA00080B483B000AF78607B684FF6FF721A6045
:100AB0007B6800229A717B6800221A717B6804228D
:100AC0005A717B680122DA7100BF0C37BD465DF8B0
:100AD000047B704780B483B000AF0346FB71FB79A1
:100AE000042B06D1094B1B68084A43F0040313602A
:100AF00005E0064B1B68054A23F00403136000BFA2
:100B00000C37BD465DF8047B704700BF10E000E085
:100B100080B58CB000AFF860B96011461A460B463C
:100B2000FB711346BB7107F114031846FFF700FE73
:100B3000FB682A4A93420BD0FB68294A934207D0AC
:100B4000FB68284A934203D0FB68274A934202D1AC
:100B5000FB69FB6201E03B6AFB62FA6A13469B0099
:100B600013445B001A46BB68B2FBF3F3BB62B96A7D
:100B70001E4BA3FB0123DA0813469B0013445B00C2
:100B8000CA1A042A06D8BB6A184AA2FB0323DB0848
:100B9000BB6206E0BB6A154AA2FB0323DB080133F4
:100BA000BB62BB6A99B2FA68936861F30F03936002
:100BB000FB7903F00103D9B2FA68D36861F30C330F
:100BC000D360BB7903F00303D9B2FA68136961F308
:100BD0000D33136100BF3037BD4680BD0038014082
:100BE000006001400064014000680140CDCCCCCCE5
:100BF00080B483B000AF78600B46FB70FB7803F0E5
:100C00000103D9B27A68D36861F34D33D36000BF72
:100C10000C37BD465DF8047B704780B483B000AFED
:100C200078600B46FB70FB7803F00103D9B27A6859
:100C3000D36861F3C303D36000BF0C37BD465DF8D2
:100C4000047B704780B483B000AF78600B467B8034
:100C50007B88C3F308027B685A6000BF0C37BD462F
:100C60005DF8047B704780B483B000AF7860396072
:100C70007B681A683B681340002B01D0012300E019
:100C8000002318460C37BD465DF8047B7047000012
:100C9000002103E00B4B5B58435004310A480B4BD7
:100CA00042189A42F6D30A4A02E0002342F8043B73
:100CB000084B9A42F9D300F011F800F08DFAFFF7D3
:100CC00043FB70476C250008000000208C000020CA
:100CD0008C000020C8000020FEE7000080B400AFB8
:100CE0001E4BD3F888301D4A43F47003C2F8883095
:100CF0001B4A136843F00103136000BF184B1B68C5
:100D0000C3F34003DBB2012BF8D1154A53686FF3EC
:100D10000103536000BF124B5B68C3F38103DBB276
:100D2000002BF8D10E4B1B680D4A23F0867323F479
:100D3000803313600A4B00225A60094B00221A6369
:100D4000074B4FF41F029A60044B4FF000629A6009
:100D500000BFBD465DF8047B704700BF00ED00E0BA
:100D60000010024080B588B000AF0023BB610023B3
:100D7000FB6100237B6100233B610023FB600023B8
:100D8000BB60FFF7C7FC0346FB71FB79022B20D049
:100D9000022B69DC002B02D0012B16D064E03F4B04
:100DA0005B6DC3F34023DBB2002B0AD03B4B1B6BC4
:100DB000C3F34063DBB2002B03D0394B394A1A60CE
:100DC00056E0374B384A1A6052E0354B364A1A60C3
:100DD0004EE0324B5B68C3F30043DBB23B612F4B09
:100DE0005B68C3F38343DBB2FB612C4B5B68C3F3EB
:100DF0004173DBB27B617B69002B02D1FB690F2B56
:100E000006D17B691A01FB6913440133FB6102E0DF
:100E1000FB690233FB613B69002B06D1FB69234A66
:100E200002FB03F31E4A136022E01C4B5B68C3F312
:100E30004043DBB2002B10D0184B5B6DC3F3013382
:100E4000DBB2BB61BB690233174AB2FBF3F3FA6949
:100E500002FB03F3124A13600AE0FB69124A02FB29
:100E600003F30F4A136003E00D4B0F4A1A6000BFF3
:100E70000A4B5B68C3F30313DBB2FB600C4AFB68ED
:100E800013441B78BB60064B1A68BB6822FA03F355
:100E9000034A136000BF2037BD4680BD00100240EA
:100EA00000000020006CDC0200127A0000093D0006
:100EB000BC24000880B586B000AFF860B9607A60E5
:100EC00000237B611BE000BF80211148FFF7CBFEB0
:100ED0000346002BF8D0BB685A1CBA601B789BB243
:100EE00019460B48FFF7AEFE00BF40210848FFF748
:100EF000BAFE0346002BF8D07B6901337B617A6927
:100F00007B689A42DFDB7B6818461837BD4680BD98
:100F10000038014080B584B000AF78601B4B1B687F
:100F2000986800230222002100F010FA01211848DD
:100F3000FFF7B7FA01211748FFF7B3FA07F10803E3
:100F40001846FFF7ADFD0123FB7300233B73082315
:100F5000BB734FF40073BB6004237B7307F108037A
:100F600019460D48FFF700FD0023002279680B4861
:100F7000FFF7CEFD01210948FFF74FFE0121074889
:100F8000FFF736FE00BF1037BD4680BD28000020A9
:100F90000E0018000200180000080140003801404F
:100FA00080B500AF00F090F8002000F035F8012087
:100FB00000F032F8022000F02FF8002000F060F876
:100FC000012000F05DF8022000F05AF800F002F86D
:100FD00000BF80BD80B582B000AF01210C48FFF793
:100FE00060FA3B461846FFF75BFD0123FB710023C7
:100FF0003B710023BB7101233B6028237B713B467F
:1010000019460448FFF7B0FC00BF0837BD4680BD55
:10101000020018000008014080B584B000AF03460C
:10102000FB71FB79134A52F8233001211846FFF770
:1010300038FA07F108031846FFF732FD0123FB7366
:1010400000233B731023BB73FB790B4A32F8133038
:10105000BB6004237B73FB79084A52F8233007F105
:10106000080211461846FFF77FFC00BF1037BD4647
:1010700080BD00BF180000201000002004000020E8
:1010800080B483B000AF0346FB71FB79022B10D80C
:10109000FB790B4A32F81330002B0BD0FB79084A4E
:1010A00032F81310FB79074A52F823300A461A61C6
:1010B00000E000BF0C37BD465DF8047B704700BF01
:1010C000100000200400002080B500AF0420FFF7CE
:1010D00001FD094B1B68094AA2FB03239B0C084A2C
:1010E0001360074B1B684FF47A7202FB03F3054A47
:1010F000136000BF80BD00BF0000002083DE1B43E3
:10110000AC000020B000002080B485B000AF0346E2
:10111000FB800023FB6035E0FB88322B0AD91E4B95
:101120001B681E4A322101FB03F35360FB88323BEC
:10113000FB8008E0FB88184A1268184902FB03F399
:101140004B600023FB80154B00229A60134B1B68F9
:10115000124A43F001031360104B1B68FB60FB68ED
:1011600003F00103002B04D0FB6803F48033002B51
:10117000F2D00A4B1B68094A23F001031360074BA6
:1011800000229A60FB88002BC6D100BF00BF143735
:10119000BD465DF8047B7047B000002010E000E021
:1011A00080B584B000AF0346FB800023FB810AE0DA
:1011B0004FF4FA70FFF7A8FF4FF4FA70FFF7A4FF9F
:1011C000FB890133FB81FA89FB889A42F0D300BF87
:1011D00000BF1037BD4680BD70B50D4D0D4C641B72
:1011E000A4100026A64209D10B4D0C4C01F028F9A1
:1011F000641BA4100026A64205D170BD55F8043B1F
:1012000098470136EEE755F8043B98470136F2E778
:101210006425000864250008642500086825000886
:1012200002440346934200D1704703F8011BF9E7DB
:101230000FB40A4B13B51C6824B1A36913B9204637
:1012400000F024FB05AB049AA1680193204600F04E
:1012500035FD02B0BDE8104004B070472800002002
:1012600070B50E46054618B183690BB900F00EFB48
:10127000AB69AC6813B9284600F008FB2C4B9C42C4
:1012800020D16C68636EDB0705D4A389980502D46E
:10129000A06D00F099FBA38919071DD52369DBB167
:1012A000013EA36816F8011F013BA36039BB002B68
:1012B00038DA22460A21284600F00EF9013011D012
:1012C0000A2511E01B4B9C4201D1AC68DAE71A4BAE
:1012D0009C4208BFEC68D5E72146284600F04EF94D
:1012E0000028DDD04FF0FF35636EDA0705D4A389FF
:1012F0009B0502D4A06D00F068FB284670BD002B52
:1013000004DAA2699A4206DC0A2904D023685A1C2E
:1013100022601970C5E72246284600F0DDF801304A
:10132000BFD1DFE723680A255A1C22601D70DBE766
:10133000F024000810250008D0240008024B0146C4
:101340001868FFF78DBF00BF280000202DE9F74384
:101350001D465D4B1F6804460E46904627B1BB698B
:1013600013B9384600F092FA584B9C4267D17C681A
:10137000B8F1020F06D0B8F1010F00F29F80002DE6
:10138000C0F29C80636EDB0705D4A389980502D464
:10139000A06D00F019FB2146384600F0E3F9616BBF
:1013A00041B104F14403994202D0384600F07CFB7D
:1013B000002363630023A3616360A389190603D537
:1013C0002169384600F070FBA38923F44A6323F0B7
:1013D0000303B8F1020FA3816CD001AB6A4621462A
:1013E000384600F0F3FAA3891843A081002D30D1CC
:1013F000009D284600F050FB0646002855D1DDF838
:101400000090A9454AD14FF0FF350022A26004F1B7
:101410004702226022610122B4F90C306261626EDF
:1014200043F00203D207A38105D413F4007F02D155
:10143000A06D00F0CAFA284603B0BDE8F083244B43
:101440009C4201D1BC6893E7224B9C4208BFFC68D8
:101450008EE7002ECDD0BB6913B9384600F016FADE
:10146000B8F1010F08BFA389266004BF43F0010350
:10147000A381A28912F00803C4E904651CD0D30734
:1014800041BF00236D42A360A56158BFA560656E92
:1014900015F0010515D112F4007FC8E7484600F0A9
:1014A000FBFA06460028AED04D46A38943F08003E0
:1014B000A381D0E70025A8E7A360E8E74FF0FF3558
:1014C000B9E70025B7E700BF28000020F024000896
:1014D00010250008D0240008F8B50E46144605462D
:1014E00018B183690BB900F0D1F9214B9C422BD183
:1014F0006C68A369A360A3891A072FD523696BB30E
:1015000023692068C01A6369F6B28342374604DC57
:101510002146284600F026F930BBA368013BA360B2
:1015200023685A1C22601E7063690130834204D014
:10153000A389DB0706D50A2E04D12146284600F0F0
:1015400011F988B93846F8BD0A4B9C4201D1AC6804
:10155000CFE7094B9C4208BFEC68CAE72146284602
:1015600000F00CF80028CBD04FF0FF37EAE700BFBF
:10157000F024000810250008D0240008324B70B574
:101580001D6806460C4625B1AB6913B9284600F024
:101590007DF92E4B9C420FD16C68A389B4F90C20C5
:1015A00019072CD4DD0611D40923336042F040031F
:1015B000A3814FF0FF303EE0254B9C4201D1AC6847
:1015C000EBE7244B9C4208BFEC68E6E7580712D5CE
:1015D000616B41B104F14403994202D0304600F0FE
:1015E00063FA00236363A38923F02403A381002308
:1015F000636023692360A38943F00803A3812369FF
:101600004BB9A38903F42073B3F5007F03D02146BF
:10161000304600F001FAA089B4F90C2010F0010363
:101620000AD00023A36063695B42A361236943B9C5
:1016300010F08000BAD170BD810758BF6369A36004
:10164000F4E70020F7E700BF28000020F02400089E
:1016500010250008D02400088A892DE9F0410546AC
:1016600010070C4658D44B68002B05DC0B6C002B84
:1016700002DC0020BDE8F081E66A002EF9D00023EC
:1016800012F480522F682B6032D0606DA3895A0704
:1016900005D56368C01A636B0BB1236CC01A0023B5
:1016A0000246E66A216A2846B047431CA38906D150
:1016B00029681D292CD82A4ACA40D60728D50022D5
:1016C0006260D9042269226004D5421C01D12B68D2
:1016D00003B96065616B2F600029CAD004F144032F
:1016E000994202D0284600F0DFF900206063C1E78C
:1016F000216A01232846B047411CC7D12B68002B23
:10170000C4D01D2B01D0162B01D12F60B1E7A389C6
:1017100043F04003A381ADE70F69002FA9D09307E1
:101720000E6808BF4B690F6018BF0023A6EB0708BF
:101730008B60B8F1000F9CDD216AA66A43463A46E9
:101740002846B047002806DCA38943F04003A38164
:101750004FF0FF308EE70744A8EB0008E9E700BF31
:101760000100402038B50B6905460C4613B9002529
:10177000284638BD18B183690BB900F087F8144BBF
:101780009C421BD16C68B4F90C30002BEFD0626E18
:10179000D00704D4990502D4A06D00F015F92846AD
:1017A0002146FFF759FF636EDA070546E0D4A389A7
:1017B0009B05DDD4A06D00F008F9D9E7054B9C42EC
:1017C00001D1AC68DFE7044B9C4208BFEC68DAE764
:1017D000F024000810250008D0240008002310B5CC
:1017E0000446C0E90033C0E9043383608181436665
:1017F000C2818361194608225C30FFF711FD054B59
:101800006362054BA362054BE362054B24622363CD
:1018100010BD00BF6522000887220008BF22000813
:10182000E3220008014900F0AFB800BF65170008C7
:1018300070B568224D1E55430E4605F1740100F047
:101840009FF9044640B10021C0E900160C30A060A9
:1018500005F16802FFF7E4FC204670BD014800F086
:10186000B3B800BFB5000020014800F0AEB800BF1B
:10187000B5000020014800F0A7B800BFB600002066
:10188000014800F0A2B800BFB600002010B5044621
:10189000FFF7F0FFA3691BB1BDE81040FFF7F0BFF1
:1018A000C4E912332365134B134A1B68A262A34297
:1018B00004BF0123A361204600F020F860602046A9
:1018C00000F01CF8A060204600F018F80022E0604C
:1018D00004216068FFF782FFA06801220921FFF759
:1018E0007DFFE06802221221FFF778FF0123A36148
:1018F000D2E700BFCC24000825180008F8B5074639
:10190000FFF7ACFF1E4B1E68B36913B93046FFF7F3
:10191000BDFF4836D6E90134013B03D533680BB32C
:101920003668F7E7B4F90C50D5B9164BE36004F10B
:101930005800656600F047F8FFF796FFC4E90155C7
:10194000C4E904552560A5610822294604F15C001C
:10195000FFF766FCC4E90D55C4E912552046F8BDF1
:101960006834D9E704213846FFF762FF0446306047
:101970000028D5D1FFF778FF0C233B60EEE700BFCE
:10198000CC2400080100FFFF2DE9F84306468846F5
:1019900000F148040027D4E90195B9F1010905D502
:1019A0002468002CF7D13846BDE8F883AB89012BB9
:1019B00007D9B5F90E30013303D029463046C04768
:1019C00007436835E9E770477047704770B50E46C2
:1019D000B1F90E10002996B014461D4608DAB6F982
:1019E0000C3000222A601A0610D44FF480630EE0F7
:1019F0006A4600F09DFC0028F1DB019A02F4704277
:101A0000A2F500535A425A412A60EEE740230020D3
:101A1000236016B070BD00008B8973B59D07064624
:101A20000C4607D504F1470323602361012363615A
:101A300002B070BD01AB6A46FFF7C8FF00990546CA
:101A4000304600F09DF848B9B4F90C309A05EFD44F
:101A500023F0030343F00203A381E3E70D4BB362DA
:101A6000A389206043F08003A381009B6361019BF5
:101A700020615BB1B4F90E10304600F06BFC28B168
:101A8000A38923F0030343F00103A381A089054345
:101A9000A581CDE725180008024B0146186800F023
:101AA0006FB800BF2800002037B5002944D051F896
:101AB000043C0190002BA1F10404B8BFE41800F02D
:101AC0006BFC1E4A0198136833B96360146003B05D
:101AD000BDE8304000F066BCA34208D92568611912
:101AE0008B4201BF19685B6849192160EDE71A460E
:101AF0005B680BB1A342FAD911685518A5420BD106
:101B0000246821445418A3421160E0D11C685B682A
:101B1000536021441160DAE702D90C230360D6E751
:101B2000256861198B4204BF19685B68636004BF54
:101B3000491921605460CAE703B030BDB8000020E5
:101B400070B50E4E0C463168054611B900F07AFBAF
:101B500030602146284600F075FB431C0AD0C41CA7
:101B600024F00304A04207D0211A284600F06AFBA3
:101B7000013001D14FF0FF34204670BDBC00002081
:101B80002DE9F041CD1C25F0030508350C2D38BF9B
:101B90000C25002D074601DBA94205D90C233B602B
:101BA00000263046BDE8F0812E4E00F0F5FB33688C
:101BB0001C4634BB29463846FFF7C2FF431C044687
:101BC0004DD134682646002E40D123683146384630
:101BD00004EB030800F036FB80453AD12168033559
:101BE0006D1A25F0030508350C2D38BF0C25294644
:101BF0003846FFF7A5FF01302BD023682B44236024
:101C00000EE02268521B1ED40B2A16D96119A3427A
:101C1000256018BF5960636808BF316062514B602E
:101C2000384604F10B0600F0BDFB26F00706231D25
:101C3000F21AB6D09B1BA350B3E76268A3420CBF55
:101C400032605A60ECE723466468B2E7344676684F
:101C5000B9E70C233B60384600F0A4FBA1E7256000
:101C6000DEE700BFB80000209368013B002B10B4F2
:101C7000936008DA9469A34201DB0A2903D15DF875
:101C8000044BFFF729BC1368581C106019700846F4
:101C90005DF8044B7047F8B506460F461446D51854
:101CA000AC4201D1002007E014F8011B3A4630464F
:101CB000FFF7DAFF431CF3D1F8BD00002DE9F04F28
:101CC0000D469DB014469846064618B183690BB977
:101CD000FFF7DCFD894B9D421BD175686B6ED90700
:101CE00005D4AB899A0502D4A86DFFF76DFEAB89C8
:101CF0001B0701D52B69EBB929463046FFF73EFC9F
:101D0000C0B16B6EDC070ED54FF0FF301DB0BDE8E3
:101D1000F08F7B4B9D4201D1B568DFE7794B9D4247
:101D200008BFF568DAE7AB899805EDD4A86DFFF731
:101D30004CFEE9E70023099320238DF82930CDF8E4
:101D40000C803023DFF8C0818DF82A304FF0010974
:101D500023469A4613F8012B0AB1252AF9D1BAEB8A
:101D6000040B0BD05B46224629463046FFF793FF13
:101D7000013000F0AA80099A5A4409929AF800307A
:101D8000002B00F0A28000234FF0FF32CDE90523A5
:101D90000AF1010A049307938DF853301A935446BD
:101DA000052214F8011B5848FEF712FA049AD8B914
:101DB000D10644BF20238DF85330130744BF2B2393
:101DC0008DF853309AF800302A2B15D0079A5446D4
:101DD00000204FF00A0C214611F8013B303B092B43
:101DE0004ED9B0B1079214E0A0EB080309FA03F34F
:101DF00013430493A246D2E7039B191D1B6803916A
:101E0000002BBBBF5B4242F0020207930793B8BFAF
:101E1000049223782E2B0CD163782A2B35D1039B87
:101E20001A1D1B680392002BB8BF4FF0FF3302341A
:101E30000593DFF8E4A0217803225046FEF7C8F9A5
:101E400040B14023A0EB0A0003FA00F0049B0343D7
:101E50000134049314F8011B2C488DF82810062235
:101E6000FEF7B6F900283FD0294B1BBB039B073375
:101E700023F0070308330393099B3B44099367E767
:101E80000CFB02320C460120A5E700230134059328
:101E900019464FF00A0C204610F8012B303A092A57
:101EA00003D9002BC5D00591C3E70CFB01210446E3
:101EB0000123F0E703AB00932A46164B04A93046F2
:101EC000AFF300800746781CD6D16B6ED90705D4D6
:101ED000AB899A0502D4A86DFFF777FDAB895B0645
:101EE0003FF512AF099811E703AB00932A46094B5F
:101EF00004A9304600F080F8E4E700BFF0240008B1
:101F000010250008D0240008302500083A250008D4
:101F100000000000971C0008362500082DE9F04756
:101F2000164699468A680B69DDF820809342B8BF4F
:101F30001346336091F8432007460C460AB101333B
:101F400033602368990642BF3368023333602568E3
:101F500015F0060506D104F1190AE36832689B1AE8
:101F6000AB4226DC94F84320131E226818BF0123DD
:101F700092062BD404F1430249463846C04701304B
:101F80001ED02368E568326803F00603042B08BFFF
:101F9000AD1AA36822690CBF25EAE57500259342B6
:101FA000C4BF9B1AED1800261A34B5421AD100207E
:101FB00008E00123524649463846C047013003D164
:101FC0004FF0FF30BDE8F0870135C6E7E1185A1C35
:101FD000302081F84300224494F8451082F84310E1
:101FE0000233C7E70123224649463846C04701303D
:101FF000E6D00136D9E700002DE9FF470F7E0C9DA2
:10200000782F914680460C469A4601F1430207D844
:10201000622F0AD8002F00F0D880582F00F0A3803C
:1020200004F1420584F842703AE0A7F16303152BEE
:10203000F6D801A151F823F091200008A52000084E
:10204000212000082120000821200008212000086C
:10205000A5200008212000082120000821200008D8
:1020600021200008B1210008D52000089321000894
:102070002120000821200008D32100082120000889
:10208000D520000821200008212000089B210008FD
:102090002B681A1D1B682A6004F1420584F842303F
:1020A0000123A3E020682968060601F104030AD58C
:1020B0000E682B60002E03DA2D23764284F843301D
:1020C0005E480A2319E00E682B6010F0400F18BF1D
:1020D00036B2EFE72B682068191D2960010601D58B
:1020E0001E6802E04606FBD51E8854486F2F0CBFC1
:1020F00008230A23002184F843106568A560002D99
:10210000A2BF216821F0040121600EB9002D4DD03D
:102110001546B6FBF3F103FB1167C75D05F8017DBA
:102120003746BB420E46F4D9082B0BD12368DE0795
:1021300008D5236961689942DEBF302305F8013C68
:1021400005F1FF35521B2261CDF800A04B4603AAD2
:1021500021464046FFF7E2FE01304CD14FF0FF3000
:1021600004B0BDE8F087354881F8457029682368D8
:1021700051F8046B29601D0614D5DF0744BF43F0F6
:10218000200323601EB9236823F02003236010235B
:10219000B0E7236843F0200323607823284884F8BD
:1021A0004530E3E7590648BFB6B2E6E71546BBE758
:1021B0002B6826686169181D286035061B6801D5E3
:1021C000196002E07006FBD51980002323611546D3
:1021D000BAE72B681A1D2A601D686268002128462C
:1021E000FDF7F6FF08B1401B6060636823610023C0
:1021F00084F84330A8E723692A4649464046D04739
:102200000130ABD023689B0713D4E068039B98424E
:10221000B8BF1846A4E70123324649464046D04796
:1022200001309BD00135E36803995B1AAB42F2DCC5
:10223000EBE7002504F11906F5E700BF412500088A
:102240005225000838B5064D0023044608462B6089
:1022500000F0E8F8431C02D12B6803B1236038BDBD
:10226000C000002010B50C46B1F90E1000F0A0F827
:102270000028ABBF636DA3891B1823F48053ACBF48
:102280006365A38110BD2DE9F0411F468B89DB05F5
:1022900005460C46164605D5B1F90E10022300225C
:1022A00000F068F8A389B4F90E1023F48053A381D9
:1022B00032463B462846BDE8F04100F017B810B55D
:1022C0000C46B1F90E1000F055F8431CA38915BF58
:1022D000606523F4805343F48053A38118BFA38126
:1022E00010BDB1F90E1000F013B8000038B5074D5D
:1022F00004460846114600222A601A46FEF7DAFD17
:10230000431C02D12B6803B1236038BDC0000020FC
:1023100038B5064D0023044608462B6000F05AF8F5
:10232000431C02D12B6803B1236038BDC0000020DC
:1023300038B5074D00230446084611462B6000F0CF
:1023400051F8431C02D12B6803B1236038BD00BF94
:10235000C000002038B5064D0023044608462B6017
:1023600000F048F8431C02D12B6803B1236038BD4C
:10237000C000002038B5074D04460846114600222B
:102380002A601A4600F03EF8431C02D12B6803B1C4
:10239000236038BDC00000200148FFF715BB00BF17
:1023A000B40000200148FFF710BB00BFB4000020BC
:1023B00038B5074D04460846114600222A601A46E1
:1023C00000F028F8431C02D12B6803B1236038BD0C
:1023D000C0000020024B58221A604FF0FF307047B7
:1023E000C0000020024B58221A604FF0FF307047A7
:1023F000C0000020024B58221A600020704700BF26
:10240000C0000020024B58221A604FF0FF30704786
:10241000C0000020024B58221A604FF0FF30704776
:10242000C0000020044A05491368002B08BF0B4672
:102430001844106018467047C4000020C8000020EF
:10244000F8B500BFF8BC08BC9E467047F8B500BFA1
:08245000F8BC08BC9E46704771
:102458005553415254205052494E542053544152DE
:10246800540D00004D494E48204D414E0D000000CE
:1024780054414E20504841540D000000436F756E82
:102488007465723A2025750D0A00000000000000EE
:10249800000000000102030406070809000000000C
:1024A80001020304000000000102030402040608FC
:1024B800020C0810000000000000000001020304E4
:1024C800060708092C00002000000000000000009A
:1024D80000000000000000000000000000000000F4
:1024E80000000000000000000000000000000000E4
:1024F80000000000000000000000000000000000D4
:1025080000000000000000000000000000000000C3
:1025180000000000000000000000000000000000B3
:102528000000000000000000232D302B2000686C04
:102538004C006566674546470030313233343536DE
:102548003738394142434445460030313233343517
:0C25580036373839616263646566000044
:04256400B5010008B5
:0425680091010008D5
:10256C0000127A00001401400014014000140140D4
:10257C000020004000800000050018000500180035
:10258C0005001800010000002C00002000000000D5
:10259C00F024000810250008D024000800000000DA
:1025AC00000000000000000000000000000000001F
:1025BC00000000000000000000000000000000000F
:1025CC0000000000000000000000000000000000FF
:1025DC0000000000000000000000000000000000EF
:0C25EC00000000000000000000000000E3
:0400000508000C9152
:00000001FF
